00COTAHIST.2026BOVESPA 20260709                                                                                                                                                                                                                      
012026070934S2NA34      010SNAP INC    DRN          R$  000000000040600000000004060000000000396000000000039600000000004020000000000221000000000040700004000000000000000192000000000000076058000000000000009999123100000010000000000000BRS2NABDR004100
012026070902ALUP11      010ALUPAR      UNT     N2   R$  000000000323900000000033090000000003239000000000328200000000033050000000003288000000000330504091000000000001057900000000003473063900000000000000009999123100000010000000000000BRALUPCDAM15128
012026070914BOVA11      010ISHARES BOVACI           R$  000000001685300000000170050000000016793000000001695600000000169800000000016980000000001699527317000000000002239318000000037970226223000000000000009999123100000010000000000000BRBOVACTF003119
012026070902ITUB4       010ITAUUNIBANCOPN  EJ  N1   R$  000000000419500000000042750000000004194000000000424800000000042590000000004258000000000426430925000000000018657300000000079257792700000000000000009999123100000010000000000000BRITUBACNPR1372
012026070902SAPR11      010SANEPAR     UNT     N2   R$  000000000362300000000037190000000003590000000000367700000000036980000000003697000000000370803113000000000000699900000000002574121400000000000000009999123100000010000000000000BRSAPRCDAM13121
012026070902PETR4       010PETROBRAS   PN      N2   R$  000000000397400000000039980000000003889000000000393100000000039210000000003920000000000392544428000000000033386500000000131268450000000000000000009999123100000010000000000000BRPETRACNPR6228
012026070912HGLG11      010FII HGLG PAXCI  ER       R$  000000001485000000000148900000000014830000000001486600000000148780000000014876000000001487810983000000000000066604000000000990167083000000000000009999123100000010000000000000BRHGLGCTF004298
012026070902VALE3       010VALE        ON      NM   R$  000000000734100000000073490000000007193000000000729100000000073150000000007315000000000731933584000000000018980500000000138397052500000000000000009999123100000010000000000000BRVALEACNOR0222
012026070902TAEE11      010TAESA       UNT     N2   R$  000000000397000000000040400000000003954000000000400700000000040310000000004030000000000403905466000000000001236500000000004955713000000000000000009999123100000010000000000000BRTAEECDAM10155